:100000000C942A000C9458010C9447000C94410164
:100010000C9447000C9447000C9447000C94470044
:100020000C9447000C9447000C9447000C94470034
:100030000C9447000C9447000C9447000C94470024
:100040000C9447000C9447000C9447000C94470014
:100050000C94470011241FBECFE5D4E0DEBFCDBF16
:1000600011E0A0E6B0E0ECE4F7E002C005900D92EC
:10007000A036B107D9F711E0A0E6B1E001C01D92AA
:10008000A636B107E1F70E9414010C94A4030C9466
:10009000000080FF02C0929A01C0929881FF02C0C6
:1000A000939A01C0939882FF02C0949A01C09498D9
:1000B00083FF02C0959A0895959808951F93182F6D
:1000C000919A82958F700E9449009198919A812F00
:1000D0000E944900919880E18A95F1F71F91089557
:1000E00090980E945E000895909A0E945E00089584
:1000F000CF93DF93EC0103C021960E9474008881A6
:100100008823D1F7DF91CF9108956295660F660F2E
:10011000607C680F862F80680E947000089581E0DF
:100120000E94700084EF91E00197F1F7089582E05A
:100130000E94700084EF91E00197F1F708951F93FA
:10014000CF93DF938A9A8B9A8C9A8D9A899A889A00
:1001500086EA9EE00197F1F79098919810E0C2EE40
:10016000D4E0919A83E00E9449009198CE010197D2
:10017000F1F71F5F1330A9F7919A82E00E944900BE
:1001800091988AEF90E00197F1F788E20E94700061
:1001900088E00E94700081E00E94700084EF91E08E
:1001A0000197F1F786E00E9470008CE00E947000D9
:1001B000DF91CF911F91089590BD89B988E18AB9E7
:1001C00086E880BD08955D9BFECF8CB908958BB104
:1001D000807808955F9BFECF8CB108958FEF81BB2F
:1001E00083E085BF14BC89E085BD81E083BD80E8E4
:1001F0008FBF089585B7806485BF939A86E08A95FE
:10020000F1F7939880ED97E00197F1F785B78F7B31
:1002100085BF6091600170916101882777FD8095AD
:10022000982F0E94C40108950F931F938FEF81BBF5
:100230004091600103E318E1B6E8AFEFF3E0E9E0D5
:1002400071E060E856E020ED37E010BC09B91AB95A
:10025000B0BDA1BBF5BF14BCE5BD73BD6FBF85B715
:10026000806485BF939A852F8A95F1F79398C90189
:100270000197F1F785B78F7B85BF5D9BFECF4CB9AA
:10028000E4CF1F920F920FB60F9211248F939F937A
:10029000809164019091650101969093650180932E
:1002A00064019F918F910F900FBE0F901F90189532
:1002B0001F920F920FB60F9211242F933F934F93DB
:1002C0005F936F937F938F939F93AF93BF93EF93BE
:1002D000FF938091620190916301009791F480E80F
:1002E00089BF85B78F7B85BF15BE82E085BF85B787
:1002F000806485BF81E090E0909363018093620108
:1003000032C0019781F589B78F7789BF85B78F7B19
:1003100085BF15BE83E085BF85B7806485BF8091AA
:1003200064019091650164E170E00E94460370935E
:100330006101609360010E949F000E9497000E94EB
:100340008F0080916401909165010E94780088EA95
:1003500091E60197F1F710926501109264011092F5
:10036000630110926201FF91EF91BF91AF919F9154
:100370008F917F916F915F914F913F912F910F904E
:100380000FBE0F901F901895A8E0B0E0EAECF1E0E6
:100390000C9476039B01AC0183E08983DA01C901E7
:1003A0008827B7FD83959927AA27BB27B82E211543
:1003B00031054105510519F482E089833AC088234B
:1003C000A9F0203080E0380780E0480780E858072F
:1003D00029F460E070E080E09FEC30C0EE24FF2460
:1003E0008701E21AF30A040B150B02C079018A0196
:1003F0008EE1C82ED12CDC82CB82ED82FE820F836F
:100400001887C801B7010E94220201971816190621
:1004100084F4082E04C0EE0CFF1C001F111F0A9468
:10042000D2F7ED82FE820F831887C81AD90ADC82C0
:10043000CB82BA82CE0101960E9471022896E9E031
:100440000C949203EF92FF920F931F937B018C0108
:1004500080E0E81680E0F80681E0080780E01807F1
:1004600088F48FEFE816F1040105110531F028F04A
:1004700088E090E0A0E0B0E017C080E090E0A0E06D
:10048000B0E012C080E0E81680E0F80680E00807DF
:1004900081E0180728F088E190E0A0E0B0E004C017
:1004A00080E190E0A0E0B0E020E230E040E050E009
:1004B000281B390B4A0B5B0B04C016950795F79464
:1004C000E7948A95D2F7F701E05AFF4F8081281B05
:1004D000310941095109C9011F910F91FF90EF9016
:1004E0000895DF92EF92FF920F931F93FC01E48037
:1004F000F58006811781D1808081823048F480E0C8
:1005000090E0A0E1B0E0E82AF92A0A2B1B2BA5C055
:10051000843009F49FC0823021F4EE24FF24870147
:1005200005C0E114F1040105110519F4E0E0F0E063
:1005300096C0628173819FEF623879070CF05BC0CF
:1005400022E83FEF261B370B2A3131052CF020E043
:1005500030E040E050E02AC0B801A701022E04C0FC
:1005600076956795579547950A94D2F781E090E084
:10057000A0E0B0E004C0880F991FAA1FBB1F2A95F6
:10058000D2F70197A109B1098E219F21A023B123A0
:100590000097A105B10521F081E090E0A0E0B0E076
:1005A0009A01AB01282B392B4A2B5B2BDA01C901AD
:1005B0008F779070A070B07080349105A105B1055F
:1005C00039F427FF09C0205C3F4F4F4F5F4F04C0F5
:1005D000215C3F4F4F4F5F4FE0E0F0E02030A0E064
:1005E0003A07A0E04A07A0E45A0710F0E1E0F0E083
:1005F00079018A0127C06038710564F5FB01E15873
:10060000FF4FD801C7018F779070A070B070803411
:100610009105A105B10539F4E7FE0DC080E490E035
:10062000A0E0B0E004C08FE390E0A0E0B0E0E80E0E
:10063000F91E0A1F1B1F17FF05C016950795F79493
:10064000E794319687E016950795F794E7948A9595
:10065000D1F705C0EE24FF248701EFEFF0E06E2F05
:10066000679566276795902F9F77D794DD24D79459
:100670008E2F8695492F462B582F5D29B701CA0129
:100680001F910F91FF90EF90DF90089597FB092E37
:1006900007260AD077FD04D00CD006D000201AF42B
:1006A000709561957F4F0895F6F7909581959F4FCE
:1006B0000895AA1BBB1B51E107C0AA1FBB1FA617A9
:1006C000B70710F0A61BB70B881F991F5A95A9F7FB
:1006D00080959095BC01CD0108952F923F924F9245
:1006E0005F926F927F928F929F92AF92BF92CF92C2
:1006F000DF92EF92FF920F931F93CF93DF93CDB7CB
:10070000DEB7CA1BDB0B0FB6F894DEBF0FBECDBF42
:1007100009942A88398848885F846E847D848C8413
:100720009B84AA84B984C884DF80EE80FD800C811C
:100730001B81AA81B981CE0FD11D0FB6F894DEBFFF
:0C0740000FBECDBFED010895F894FFCF6F
:10074C00000102020303030304040404040404046C
:10075C00050505050505050505050505050505053D
:10076C00060606060606060606060606060606061D
:10077C00060606060606060606060606060606060D
:10078C0007070707070707070707070707070707ED
:10079C0007070707070707070707070707070707DD
:1007AC0007070707070707070707070707070707CD
:1007BC0007070707070707070707070707070707BD
:1007CC00080808080808080808080808080808089D
:1007DC00080808080808080808080808080808088D
:1007EC00080808080808080808080808080808087D
:1007FC00080808080808080808080808080808086D
:10080C00080808080808080808080808080808085C
:10081C00080808080808080808080808080808084C
:10082C00080808080808080808080808080808083C
:10083C00080808080808080808080808080808082C
:04000003000001B840
:00000001FF
