:100000000C942A000C9447000C9447000C94470071
:100010000C9447000C9447000C9447000C94470044
:100020000C9447000C9447000C9447000C94470034
:100030000C9447000C9447000C9447000C94470024
:100040000C9447000C9447000C9447000C94470014
:100050000C94470011241FBECFE5D4E0DEBFCDBF16
:1000600010E0A0E6B0E0E2E2F1E002C005900D92FF
:10007000A036B107D9F710E0A0E6B0E001C01D92AC
:10008000AA36B107E1F70E9468000C948F000C9427
:1000900000008FE38093600086E0809361008BE531
:1000A000809362008FE48093630086E6809364000F
:1000B0008DE6809365008DE78093660087E08093EE
:1000C00067008FE7809368008FE68093690008954A
:1000D0008FEF87BB8ABBA19AA99A0E9449003091F1
:1000E0006000309520916100209570EF48EC50E061
:1000F0006FEF78BBC89902C03BBB01C02BBB80E14E
:1001000097E2FA013197F1F70197D9F768BB80E1DF
:1001100097E2FA013197F1F70197D9F7EACFF8940E
:02012000FFCF0F
:00000001FF
