:100000000C942A000C943F000C943F000C943F0089
:100010000C943F000C943F000C943F000C943F0064
:100020000C943F000C943F000C943F000C943F0054
:100030000C943F000C943F000C943F000C943F0044
:100040000C943F000C943F000C943F000C943F0034
:100050000C943F0011241FBECFE5D8E0DEBFCDBF1A
:1000600010E0A0E6B0E0EEEDF1E002C005900D92E8
:10007000A836B107D9F70E94E2000C94ED000C9469
:10008000000080FF02C0929A01C0929881FF02C0D6
:10009000939A01C0939882FF02C0949A01C09498E9
:1000A00083FF02C0959A0895959808951F93182F7D
:1000B000919A82958F700E9441009198919A812F18
:1000C0000E944100919880E18A95F1F700C01F914C
:1000D000089590980E9456000895909A0E945600A4
:1000E0000895EF92FF92CF93DF93E82EE7017E0110
:1000F000F92EE70102C00E946D0089918823D9F78B
:10010000DF91CF91FF90EF9008956295660F660F93
:10011000607C680F862F80680E946900089581E0E6
:100120000E94690083EF91E00197F1F700C00000A1
:10013000089582E00E94690083EF91E00197F1F752
:1001400000C0000008951F938A9A8B9A8C9A8D9A0A
:10015000899A889A85EA9EE00197F1F700C000002D
:100160009098919813E0919A83E00E9441009198B1
:1001700081EE94E00197F1F700C00000115099F76B
:10018000919A82E00E944100919889EF90E0019756
:10019000F1F700C0000088E20E94690088E00E9438
:1001A000690081E00E94690083EF91E00197F1F717
:1001B00000C0000086E00E9469008CE00E94690097
:1001C0001F9108950E94A3000E9499000E948F0031
:0E01D00080E690E00E947100FFCFF894FFCF10
:0801DE007465737474747400FD
:00000001FF
