:1000000012C024C023C022C021C020C01FC01EC0F7
:100010001DC01CC01BC01AC019C018C017C016C014
:1000200015C014C013C011241FBECFE5D4E0DEBF3D
:10003000CDBF10E0A0E6B0E0E6E9F1E002C0059037
:100040000D92AC36B107D9F794D0A3C0D9CF80FFB9
:1000500002C0929A01C0929881FF02C0939A01C097
:10006000939882FF02C0949A01C0949883FF02C0C3
:10007000959A0895959808951F93182F919A8295AF
:100080008F70E5DF9198919A812FE1DF919880E15F
:100090008A95F1F700C01F9108959098EDDF0895BB
:1000A000909AEADF0895EF92FF92CF93DF93E82EC4
:1000B000E7017E01F92EE70101C0F2DF8991882373
:1000C000E1F7DF91CF91FF90EF9008956295660F71
:1000D000660F607C680F862F8068DFDF089581E0FF
:1000E000DCDF83EF91E00197F1F700C00000089595
:1000F00082E0D3DF83EF91E00197F1F700C00000C9
:1001000008951F938A9A8B9A8C9A8D9A899A889AC5
:1001100085EA9EE00197F1F700C000009098919861
:1001200013E0919A83E093DF919881EE94E0019738
:10013000F1F700C000001150A1F7919A82E087DF2B
:10014000919889EF90E00197F1F700C0000088E2F4
:10015000A4DF88E0A2DF81E0A0DF83EF91E00197D8
:10016000F1F700C0000086E098DF8CE096DF1F9179
:100170000895C7DFBDDFB3DF80E060E0A7DF80E682
:1001800090E091DF80E061E0A1DF88E690E08BDF26
:06019000FFCFF894FFCF41
:0C0196007465737474747400616161001E
:00000001FF
