:100000000C942A000C9447000C9447000C94470071
:100010000C9447000C9447000C9447000C94470044
:100020000C9447000C9447000C9447000C94470034
:100030000C9447000C9447000C9401020C94470068
:100040000C9447000C9447000C9447000C94470014
:100050000C94470011241FBECFE5D4E0DEBFCDBF16
:1000600010E0A0E6B0E0E8E4F5E002C005900D92F3
:10007000A637B107D9F710E0A6E7B0E001C01D929E
:10008000A038B107E1F70E94D1010C94A2020C94B0
:10009000000080E395E70197F1F712BA12BA81B335
:1000A0008C6381BB81B3836081BB82B38C6082BB74
:1000B000919A20ED37E0C9010197F1F7919880E11D
:1000C00097E20197F1F782B38C6082BB919AC901E4
:1000D0000197F1F79198C9010197F1F782B38C600C
:1000E00082BB919AC9010197F1F79198C9010197D3
:1000F000F1F782B3887082BB919AC9010197F1F739
:100100009198C9010197F1F7939A919AC9010197C2
:10011000F1F79198C9010197F1F7959A919AC90160
:100120000197F1F79198C9010197F1F782B312BADB
:10013000919AC9010197F1F79198C9010197F1F7D7
:10014000959A919AC9010197F1F79198C901019780
:10015000F1F782B312BA919AC9010197F1F7919818
:10016000C9010197F1F7929A919AC9010197F1F7A4
:100170009198C9010197F1F782B312BA919AC90116
:100180000197F1F79198C9010197F1F782B388615E
:1001900082BB919AC9010197F1F79198C901019722
:1001A000F1F782B312BA919AC9010197F1F79198C8
:1001B000C9010197F1F782B38C6382BB919AC9019F
:1001C0000197F1F79198C9010197F1F70895982FD8
:1001D000969596959C7392BB92B3936092BB20EDDB
:1001E00037E0F9013197F1F792B312BAF90131977B
:1001F000F1F7880F880F8C7382BB82B3836082BB58
:10020000C9010197F1F782B312BAC9010197F1F759
:100210000895982F969596959C7392BB919A20ED90
:1002200037E0F9013197F1F79198F9013197F1F73A
:10023000880F880F8C7382BB919AC9010197F1F7DF
:100240009198C9010197F1F7089581E00E94090191
:10025000089582E00E94090108950F931F93CF93A0
:10026000DF93062F009749F0EC0110E004C089915C
:100270000E94E7001F5F1017D0F3DF91CF911F910D
:100280000F910895623031F0633031F0613029F41C
:10029000805C03C08C5E01C08C5A80680E9409019A
:1002A00008950F931F93082F10E004C08EE10E9461
:1002B00009011F5F1017D0F31F910F9108950F933D
:1002C0001F93082F10E004C088E10E9409011F5FFE
:1002D0001017D0F31F910F9108958EE00E9409012D
:1002E00008958FE00E94090108958CE00E940901A1
:1002F000089588E00E94090108958CE00E94090198
:1003000008950F931F93082F10E004C080E10E940E
:1003100009011F5F1017D0F31F910F9108950F93DC
:100320001F93082F10E004C084E10E9409011F5FA1
:100330001017D0F31F910F9108951F93CF93DF9360
:10034000EC01862F642F0E94420110E003C00E943E
:10035000E7001F5FFE01E10FF11D84918823B9F7CB
:10036000DF91CF911F9108950F931F93CF93DF9348
:10037000660F660F660FEC016064062F085F162F8C
:100380001F5F862F0E940901FE0184910E94E700F1
:100390002196612F101799F7DF91CF911F910F913F
:1003A00008950E9449000E94750160E081E00E946A
:1003B00042016EE080E690E00E942D0161E084E061
:1003C0000E94420162E08FE690E00E942D0161E010
:1003D0008AE00E94420162E084E790E00E942D01E1
:1003E00085B78F74806185BF80E287B98BEC86B951
:1003F000789485B7806485BF889585B78F7B85BFE6
:10040000FFCF1F920F920FB60F9211240F931F93DD
:100410002F933F934F935F936F937F938F939F930C
:10042000AF93BF93EF93FF9384B190E090937D00DF
:1004300080937C0025B130E030937B0020937A00DC
:1004400056E0969587955A95E1F7220F331F220FB4
:10045000331F822B932B90937F0080937E0006E7BF
:1004600010E04AE050E0B8010E945D0261E086E0E1
:100470000E94420162E0C8010E942D0161E082E712
:1004800090E00E942D0161E0C80102960E942D01BA
:100490008BEC86B9FF91EF91BF91AF919F918F91B6
:1004A0007F916F915F914F913F912F911F910F918C
:1004B0000F900FBE0F901F901895FB019F01E894BD
:1004C0004230C4F04532B4F44A3029F497FB1EF4AC
:1004D000909581959F4F642F77270E948E02805DB3
:1004E0008A330CF0895D8193CB010097A1F716F454
:1004F0005DE251931082C9010C947E02DC01FC0183
:10050000672F71917723E1F7329704C07C916D9347
:1005100070836291AE17BF07C8F30895AA1BBB1B77
:1005200051E107C0AA1FBB1FA617B70710F0A61BF3
:10053000B70B881F991F5A95A9F780959095BC0114
:08054000CD010895F894FFCFEE
:100548007777772E70726F706F782E636F6D0054A7
:060558003D002E00DF4310
:00000001FF
