:100000000C942A000C9447000C9447000C94470071
:100010000C9447000C9447000C9447000C94470044
:100020000C9447000C9447000C9447000C94470034
:100030000C9447000C9447000C9447000C94470024
:100040000C9447000C9447000C9447000C94470014
:100050000C94470011241FBECFE5D4E0DEBFCDBF16
:1000600010E0A0E6B0E0E4E5F1E002C005900D92FA
:10007000A036B107D9F710E0A0E6B0E001C01D92AC
:10008000AA36B107E1F70E9468000C94A8000C940E
:1000900000008FE38093600086E0809361008BE531
:1000A000809362008FE48093630086E6809364000F
:1000B0008DE6809365008DE78093660087E08093EE
:1000C00067008FE7809368008FE68093690008954A
:1000D0000F931F938FEF84BB87BB8ABB0E9449009D
:1000E0004091600040954BBB7091630070956091AA
:1000F000620060955091610050950FE728EC30E068
:100100001FEBBFEDAFEE08BB7BBB80E197E2F901CF
:100110003197F1F70197D9F718BB6BBB80E197E2F4
:10012000F9013197F1F70197D9F7B8BB5BBB80E1D3
:1001300097E2F9013197F1F70197D9F7A8BB4BBBCB
:1001400080E197E2F9013197F1F70197D9F7DBCF19
:04015000F894FFCF51
:00000001FF
