:100000000C942A000C9447000C9447000C94470071
:100010000C9447000C9447000C9447000C94470044
:100020000C9447000C9447000C9447000C94470034
:100030000C9447000C9447000C9447000C94470024
:100040000C9447000C9447000C9447000C94470014
:100050000C94470011241FBECFE5D4E0DEBFCDBF16
:1000600011E0A0E6B0E0EEECFBE002C005900D92DE
:10007000A43DB107D9F711E0A4EDB1E001C01D9294
:10008000A43DB107E1F70E94BB010C94E5050C9477
:10009000000087B3807F87BB969A939881E08A950A
:1000A000F1F721E0C49A822F8A95F1F786B3829501
:1000B000807F922F9A95F1F7C498922F9A95F1F735
:1000C000C49A922F9A95F1F796B3922F9A95F1F7D9
:1000D000C498922F9A95F1F787FDE4CF969887B34D
:1000E0008F6087BB0895382F662311F4939801C061
:1000F000939A21E0822F8A95F1F7C49A88B3932FBF
:1001000092959F70807F982B98BB822F8A95F1F7EC
:10011000C498822F8A95F1F7C49A88B33F70807F84
:10012000832B88BB822F8A95F1F7C4982A95F1F723
:100130000E9449000895CF93DF93EC0112C08532ED
:1001400061F4219688818053883038F061E085E23F
:100150000E94730061E0888101C061E00E94730029
:1001600021968881882359F7DF91CF910895EF92E6
:10017000FF920F931F93DF93CF9300D000D00F9285
:10018000CDB7DEB79C018B01FE01319685E0DF0122
:100190001D928A95E9F7FE0135960DC0C9016AE006
:1001A00070E00E9487058083C9016AE070E00E94C8
:1001B00087059B0131972115310581F7BFEF0F3F6F
:1001C0001B0779F420E030E0AE014F5F5F4F02C0C3
:1001D0002F5F3F4FFA01E20FF31F80818823C1F3A5
:1001E00004C025E030E0201B310B7E010894E11CA7
:1001F000F11CE20EF31E890109C0F70181917F0114
:1002000061E0805D0E9473000F5F1F4F0530110594
:10021000A4F30F900F900F900F900F90CF91DF915C
:100220001F910F91FF90EF900895843178F4623020
:1002300031F0633031F0613029F4806403C08C5EAA
:1002400001C08C5A60E080680E94730008951F937B
:10025000CF93DF93182F8CE49DE10197F1F787B3DB
:100260008F6087BBBC9A8B9A8E9A88B3807F88BB3D
:10027000C4989698939881E0982F9A95F1F7C49A2C
:10028000C19A982F9A95F1F7C4988A95F1F70E9430
:10029000490060E0812F8C600E94730060E088E27A
:1002A0000E94730060E080E40E947300C0E6D0E02A
:1002B00061E089910E94730080E0C03AD807C1F7DD
:1002C00060E080E00E941501DF91CF911F910895B9
:1002D00080E090E0A0E0B0E0C8990CC00196A11DBC
:1002E000B11D803C27E2920729E0A20720E0B20777
:1002F00099F733C01FBC82E08EBD1DBC1CBC20E042
:1003000030E040E050E0C89B12C08CB59DB58156EE
:100310009A4E68F42F5F3F4F4F4F5F4F203C87E26C
:10032000380789E0480780E0580769F716C08CB5A0
:100330009DB5A0E0B0E01EBC81362AEE920720E019
:10034000A20720E0B20718F02EEF3FEF08C0B695E5
:10035000A795979587959C0102C02FEF3FEFC901A4
:10036000089520E040E050E0CA010197F1F72F5FC7
:100370002A30D1F70895DF92EF92FF920F931F93E7
:10038000CF93DF9320E040E050E0CA010197F1F7FE
:100390002F5F2A30D1F780E00E94270120E040E063
:1003A00050E0CA010197F1F72F5F2A30D1F760E0E2
:1003B00081E00E94730080EA90E00E949B0061E06F
:1003C00080E00E9415018CEA90E00E949B0020E0F2
:1003D00040E050E0CA010197F1F72F5F2A30D1F7D2
:1003E00020E040E050E0CA010197F1F72F5F2A308A
:1003F000D1F720E040E050E0CA010197F1F72F5F0C
:100400002A30D1F720E040E050E0CA010197F1F72F
:100410002F5F2A30D1F720E040E050E0CA01019779
:10042000F1F72F5F2A30D1F720E040E050E0CA0119
:100430000197F1F72F5F2A30D1F760E081E00E9449
:10044000730053E0D52E45E0E42E36E0F32E00E0B5
:1004500010E0D09A8D2D8A95F1F7D89A8E2D8A9535
:10046000F1F7D8988F2D8A95F1F7D0980E946801FE
:10047000EC018FEFCF3FD80739F460E080E00E94B5
:10048000150188EB90E00AC08FEFCE3FD80749F402
:1004900060E080E00E94150180EC90E00E949B00EB
:1004A000D8CF60E080E00E941501BE0180E090E0BE
:1004B0000E94720320E030E048E652E40E94740299
:1004C0000E941E03DC01CB0164E070E00E94B700D3
:1004D00088EC90E00E949B0020E0C8010197F1F7B2
:1004E0002F5F2A30D1F7B5CFA8E1B0E0EAE7F2E01C
:1004F0000C94B60569837A838B839C832D833E831A
:100500004F835887B9E0EB2EF12CEC0EFD1EB7019E
:10051000CE0101960E940F058E010F5E1F4FB8019C
:10052000CE0105960E940F052985223008F47CC073
:100530003989323010F4B8017AC08A859A898927BE
:100540008A87243011F0223031F4231709F06CC06F
:100550006CEC70E06CC0343039F41D861E861F864A
:10056000188A1C861B8604C0323021F484E08987F7
:10057000B7015DC02B853C858B899C89281B390B75
:100580003C872B87ED84FE840F851889AD88BE8853
:10059000CF88D88CEA14FB040C051D0540F4EE0C42
:1005A000FF1C001F111F215030403C872B8720E08B
:1005B00030E040E050E080E090E0A0E0B0E46FE1A7
:1005C00070E0EA14FB040C051D0540F0282B392BC4
:1005D0004A2B5B2BEA18FB080C091D09B695A79559
:1005E00097958795EE0CFF1C001F111F61507040FE
:1005F00041F7DA01C9018F779070A070B070803434
:100600009105A105B10561F427FD0AC0E114F104CB
:100610000105110529F0205C3F4F4F4F5F4F2078B7
:100620002D873E874F87588BBE01675F7F4FCB0179
:100630000E943A046896EAE00C94D205ACE0B0E07F
:10064000E4E2F3E00C94BE0569837A838B839C8398
:10065000BE016B5F7F4FCE0101960E940F058D8119
:10066000823061F1823050F1843021F48E81882310
:1006700051F12EC02F81388537FD20C06E812F317A
:1006800031051CF06623F9F023C08EE190E0821B57
:10069000930B29853A854B855C8504C05695479513
:1006A000379527958A95D2F76623B1F050954095F6
:1006B000309521953F4F4F4F5F4F0EC020E030E007
:1006C00040E050E009C02FEF3FEF4FEF5FE704C07D
:1006D00020E030E040E050E8B901CA012C96E2E0A9
:1006E0000C94DA05A8E0B0E0E8E7F3E00C94B80574
:1006F0007B018C01611571058105910519F482E07A
:10070000898360C083E089838EE1C82ED12CDC828E
:10071000CB82ED82FE820F831887C801B7010E9449
:10072000EB03BC016150704077FF39C0EE27FF2713
:10073000E61BF70B20E030E040E050E081E090E085
:10074000A0E0B0E00E2E04C0880F991FAA1FBB1FA7
:100750000A94D2F70197A109B1098E219F21A02304
:10076000B1230097A105B10521F021E030E040E080
:1007700050E004C016950795F794E794EA95D2F7F0
:100780002E293F29402B512B2D833E834F835887A1
:100790008EE190E0861B970B9C838B8313C06115C1
:1007A000710581F0062E04C0EE0CFF1C001F111F06
:1007B0000A94D2F7ED82FE820F831887C61AD70AF1
:1007C000DC82CB821A82CE0101960E943A042896DE
:1007D000E8E00C94D405EF92FF920F931F937B01F6
:1007E0008C0180E0E81680E0F80681E0080780E0F0
:1007F000180788F48FEFE816F1040105110531F0B0
:1008000028F088E090E0A0E0B0E017C080E090E041
:10081000A0E0B0E012C080E0E81680E0F80680E0DA
:10082000080781E0180728F088E190E0A0E0B0E038
:1008300004C080E190E0A0E0B0E020E230E040E0E1
:1008400050E0281B390B4A0B5B0B04C0169507952B
:10085000F794E7948A95D2F7F701EC52FF4F808125
:10086000281B310941095109C9011F910F91FF90BE
:10087000EF900895DF92EF92FF920F931F93FC0188
:10088000E480F58006811781D1808081823048F430
:1008900080E090E0A0E1B0E0E82AF92A0A2B1B2BC7
:1008A000A5C0843009F49FC0823021F4EE24FF24D7
:1008B000870105C0E114F1040105110519F4E0E018
:1008C000F0E096C0628173819FEF623879070CF087
:1008D0005BC022E83FEF261B370B2A3131052CF095
:1008E00020E030E040E050E02AC0B801A701022E2D
:1008F00004C076956795579547950A94D2F781E09D
:1009000090E0A0E0B0E004C0880F991FAA1FBB1FB1
:100910002A95D2F70197A109B1098E219F21A02321
:10092000B1230097A105B10521F081E090E0A0E09E
:10093000B0E09A01AB01282B392B4A2B5B2BDA0153
:10094000C9018F779070A070B07080349105A105B7
:10095000B10539F427FF09C0205C3F4F4F4F5F4F6F
:1009600004C0215C3F4F4F4F5F4FE0E0F0E020308C
:10097000A0E03A07A0E04A07A0E45A0710F0E1E03F
:10098000F0E079018A0127C06038710564F5FB0148
:10099000E158FF4FD801C7018F779070A070B070F9
:1009A00080349105A105B10539F4E7FE0DC080E45E
:1009B00090E0A0E0B0E004C08FE390E0A0E0B0E001
:1009C000E80EF91E0A1F1B1F17FF05C01695079595
:1009D000F794E794319687E016950795F794E79496
:1009E0008A95D1F705C0EE24FF248701EFEFF0E0F0
:1009F0006E2F679566276795902F9F77D794DD2494
:100A0000D7948E2F8695492F462B582F5D29B701F5
:100A1000CA011F910F91FF90EF90DF900895FC01A4
:100A2000DB01408151812281622F6F7770E0221FAC
:100A30002227221F9381892F880F822B282F30E0B5
:100A4000991F9927991F11969C931197211531058C
:100A5000A9F5411551056105710511F482E037C012
:100A600082E89FEF13969C938E9312979A01AB01A5
:100A700067E0220F331F441F551F6A95D1F783E0AB
:100A80008C930DC0220F331F441F551F12968D915A
:100A90009C911397019713969C938E9312972030F5
:100AA00080E0380780E0480780E4580758F3149640
:100AB0002D933D934D935C93179708952F3F3105E8
:100AC00079F4411551056105710519F484E08C93A1
:100AD000089564FF03C081E08C9312C01C9210C083
:100AE0002F57304013963C932E93129783E08C93AC
:100AF00087E0440F551F661F771F8A95D1F77064F2
:100B000014964D935D936D937C931797089597FB7F
:100B1000092E07260AD077FD04D00CD006D000207D
:100B20001AF4709561957F4F0895F6F79095819529
:100B30009F4F0895AA1BBB1B51E107C0AA1FBB1FF3
:100B4000A617B70710F0A61BB70B881F991F5A9559
:100B5000A9F780959095BC01CD0108952F923F9201
:100B60004F925F926F927F928F929F92AF92BF92BD
:100B7000CF92DF92EF92FF920F931F93CF93DF9369
:100B8000CDB7DEB7CA1BDB0B0FB6F894DEBF0FBEC6
:100B9000CDBF09942A88398848885F846E847D8413
:100BA0008C849B84AA84B984C884DF80EE80FD8015
:100BB0000C811B81AA81B981CE0FD11D0FB6F8948B
:0E0BC000DEBF0FBECDBFED010895F894FFCF4C
:100BCE000C12120C000000000C1204081E00000093
:100BDE000A15110A040000000305090B0B18180072
:100BEE001F0E0E040404040401010505151515005D
:100BFE000E11111F1F1F1F0000000000000000003B
:100C0E00556C74726120536F6E69630053656E7319
:100C1E006F722054657374004572726F72202100DA
:100C2E00436C65617220210020636D00000000009E
:100C3E000000000000010202030303030404040485
:100C4E00040404040505050505050505050505054A
:100C5E00050505050606060606060606060606062A
:100C6E000606060606060606060606060606060616
:100C7E0006060606070707070707070707070707FA
:100C8E0007070707070707070707070707070707E6
:100C9E0007070707070707070707070707070707D6
:100CAE0007070707070707070707070707070707C6
:100CBE0007070707080808080808080808080808AA
:100CCE000808080808080808080808080808080896
:100CDE000808080808080808080808080808080886
:100CEE000808080808080808080808080808080876
:100CFE000808080808080808080808080808080866
:100D0E000808080808080808080808080808080855
:100D1E000808080808080808080808080808080845
:100D2E000808080808080808080808080808080835
:040D3E000808080891
:00000001FF
