:100000000C942A000C9447000C949A000C9447001E
:100010000C9447000C9447000C9447000C94470044
:100020000C9447000C9449000C9447000C94470032
:100030000C9447000C9447000C9447000C94470024
:100040000C9447000C9447000C9447000C94470014
:100050000C94470011241FBECFE5D4E0DEBFCDBF16
:1000600010E0A0E6B0E0E6E9F2E002C005900D92F3
:10007000A036B107D9F710E0A0E6B0E001C01D92AC
:10008000AA36B107E1F70E9403010C9449010C94D0
:1000900000001F920F920FB60F9211242F938F938F
:1000A0009F93AF93BF93809164008823C9F180919F
:1000B000660090916700A0916800B0916900019678
:1000C000A11DB11D8093660090936700A093680006
:1000D000B09369008091660090916700A0916800DC
:1000E000B091690022B7BA2FA92F982F8827820FC5
:1000F000911DA11DB11D81509F49A442B04080F0C7
:1001000010926400109265008FEF9FEFAFEFBFEF8A
:100110008093600090936100A0936200B0936300AD
:10012000BF91AF919F918F912F910F900FBE0F9024
:100130001F9018951F920F920FB60F9211242F93B4
:100140003F934F935F936F937F938F939F93AF935F
:10015000BF93EF93FF93809165008823B1F1809165
:100160006400882369F481E0809364001092660043
:1001700010926700109268001092690012BE25C0AC
:100180001092640060916600709167008091680031
:100190009091690022B7982F872F762F6627620FDC
:1001A000711D811D911D2AE330E040E050E00E9466
:1001B0002701C901DA018093600090936100A09348
:1001C0006200B093630010926500FF91EF91BF91C0
:1001D000AF919F918F917F916F915F914F913F91DF
:1001E0002F910F900FBE0F901F90189518BA81E0B5
:1001F000982F9A95F1F788BB8093650083E08A95E4
:10020000F1F718BA089581E087BB18BA95B79460E2
:1002100095BF9BB790689BBF83BF12BE89BF789480
:1002200044ED50E321E033E0809165008823E1F75D
:10023000CA010197F1F718BA822F8A95F1F728BB06
:1002400020936500832F8A95F1F718BAEDCFA1E2CC
:100250001A2EAA1BBB1BFD010DC0AA1FBB1FEE1F40
:10026000FF1FA217B307E407F50720F0A21BB30B8B
:10027000E40BF50B661F771F881F991F1A9469F707
:1002800060957095809590959B01AC01BD01CF0163
:060290000895F894FFCF71
:00000001FF
