:100000000C942A000C9447000C9447000C94470071
:100010000C9447000C94DC000C9447000C944700AF
:100020000C9447000C9447000C9447000C94470034
:100030000C9447000C9447000C9447000C94470024
:100040000C9447000C9447000C9447000C94470014
:100050000C94470011241FBECFE5D4E0DEBFCDBF16
:1000600010E0A0E6B0E0E0EDF2E002C005900D92F5
:10007000A638B107D9F710E0A6E8B0E001C01D929C
:10008000AD38B107E1F70E9411010C9466010C94A0
:10009000000080FF02C0C29A01C0C29881FF02C066
:1000A000C39A01C0C39882FF02C0C49A01C0C49819
:1000B00083FF02C0C59A0895C59808951F93182F0D
:1000C000C19A82958F700E944900C198C19A812F70
:1000D0000E944900C19880E18A95F1F71F91089527
:1000E000C0980E945E000895C09A0E945E00089524
:1000F000CF93DF93EC0103C021960E9474008881A6
:100100008823D1F7DF91CF9108956295660F660F2E
:10011000607C680F862F80680E947000089581E0DF
:100120000E94700084EF91E00197F1F7089582E05A
:100130000E94700084EF91E00197F1F708951F93FA
:10014000CF93DF93BA9ABB9ABC9ABD9AB99AB89AE0
:1001500086EA9EE00197F1F7C098C19810E0C2EEE0
:10016000D4E0C19A83E00E944900C198CE01019772
:10017000F1F71F5F1330A9F7C19A82E00E9449008E
:10018000C1988AEF90E00197F1F788E20E94700031
:1001900088E00E94700081E00E94700084EF91E08E
:1001A0000197F1F786E00E9470008CE00E947000D9
:1001B000DF91CF911F9108951F920F920FB60F926A
:1001C00011242F933F938F939F930EB406FC0CC082
:1001D00086B597B52091890030918A00821B930BD8
:1001E00090938C0080938B0086B597B590938A008E
:1001F000809389008EB590E489278EBD9F918F9161
:100200003F912F910F900FBE0F901F901895D89887
:1002100081E08A95F1F7D89A83E08A95F1F7D8982A
:1002200008951F93CF93DF93D09AD8988E9896987D
:10023000D198D99A0E949F008EB580648EBD8EB5EC
:1002400082608EBD89B7806289BF78940E948F00DA
:10025000C0E2DEE413E080918B0090918C00079760
:1002600096958795909388008093870060E080E062
:100270000E94850080E690E00E94780061E081E0C5
:100280000E9485008FE690E00E9478006AE081E09D
:100290000E9485008AE790E00E947800C999DBCF30
:1002A000CE010197F1F7C999D6CF0E948F00D89857
:1002B00081E08A95F1F7D89A812F8A95F1F7D8983D
:1002C000809186008F5F80938600C5CFF894FFCF22
:1002D0006C69637A6E696B5F7377697463680050E9
:1002E000756C73655769647468006C69637A6E69CC
:0602F0006B5F7573000056
:00000001FF
