:100000000C942A000C9447000C9447000C94470071
:100010000C9447000C9447000C9447000C94470044
:100020000C9447000C9447000C9447000C94470034
:100030000C9447000C9447000C9447000C94470024
:100040000C9447000C9447000C9447000C94470014
:100050000C94470011241FBECFE5D4E0DEBFCDBF16
:1000600010E0A0E6B0E0EEECF2E002C005900D92E8
:10007000A83BB107D9F710E0A8EBB0E001C01D9292
:10008000A83BB107E1F70E94DC000C9465010C94D9
:10009000000080FF02C0929A01C0929881FF02C0C6
:1000A000939A01C0939882FF02C0949A01C09498D9
:1000B00083FF02C0959A0895959808951F93182F6D
:1000C000919A82958F700E9449009198919A812F00
:1000D0000E944900919885E88A95F1F71F9108954B
:1000E00090980E945E000895909A0E945E00089584
:1000F000CF93DF93EC0103C021960E9474008881A6
:100100008823D1F7DF91CF9108956295660F660F2E
:10011000607C680F862F80680E947000089581E0DF
:100120000E94700080EA9FE00197F1F7089582E055
:100130000E94700080EA9FE00197F1F708951F93F5
:10014000CF93DF938A9A8B9A8C9A8D9A899A889A00
:1001500080E395E70197F1F79098919810E0C0E15E
:10016000D7E2919A83E00E9449009198CE010197CD
:10017000F1F71F5F1330A9F7919A82E00E944900BE
:10018000919880ED97E00197F1F788E20E94700066
:1001900088E00E94700081E00E94700080EA9FE089
:1001A0000197F1F786E00E9470008CE00E947000D9
:1001B000DF91CF911F910895CF93DF931ABA8FEFFC
:1001C0008BBB0E949F000E9497000E948F0060E0FE
:1001D00080E00E94850080E690E00E947800C8ECF4
:1001E000D0E089B30E948F0060E080E00E9485002B
:1001F00086E690E00E947800C8990AC00E948F00AD
:1002000060E080E00E94850080E790E00E94780036
:10021000C9990AC00E948F0060E080E00E948500BA
:1002200089E790E00E947800CA990AC00E948F0076
:1002300060E080E00E94850082E890E00E94780003
:10024000CB990AC00E948F0060E080E00E94850088
:100250008BE890E00E947800CC990AC00E948F0041
:1002600060E080E00E94850084E990E00E947800D0
:10027000CD990AC00E948F0060E080E00E94850056
:100280008DE990E00E947800CE990AC00E948F000C
:1002900060E080E00E94850086EA90E00E9478009D
:1002A000CF990AC00E948F0060E080E00E94850024
:1002B0008FEA90E00E94780084EC99E0FE0131978B
:0E02C000F1F7019709F48DCFF9CFF894FFCF35
:1002CE005374617274005A776F6C6E696F6E790039
:1002DE00427574746F6E203000427574746F6E20A8
:1002EE003100427574746F6E203200427574746FF3
:1002FE006E203300427574746F6E20340042757434
:10030E00746F6E203500427574746F6E2036004225
:08031E007574746F6E20370046
:00000001FF
