:100000000C942A000C9447000C9447000C94470071
:100010000C9447000C9447000C9447000C94470044
:100020000C9447000C9447000C9447000C94470034
:100030000C9447000C9447000C9447000C94470024
:100040000C9447000C9447000C9447000C94470014
:100050000C94470011241FBECFE5D4E0DEBFCDBF16
:1000600010E0A0E6B0E0E0E4F1E002C005900D92FF
:10007000A036B107D9F710E0A0E6B0E001C01D92AC
:10008000A036B107E1F70E9449000C949E000C9441
:1000900000008FEF8ABB20E63AEEB0E8A0E4F0E281
:1000A000E0E178E064E052E041E01BBAC901019769
:1000B000F1F7BBBBC9010197F1F7ABBBC9010197D0
:1000C000F1F7FBBBC9010197F1F7EBBBC901019740
:1000D000F1F77BBBC9010197F1F76BBBC901019730
:1000E000F1F75BBBC9010197F1F74BBBC901019760
:1000F000F1F74BBBC9010197F1F75BBBC901019750
:10010000F1F76BBBC9010197F1F77BBBC9010197FF
:10011000F1F7EBBBC9010197F1F7FBBBC9010197EF
:10012000F1F7ABBBC9010197F1F7BBBBC90101975F
:10013000F1F71BBAC9010197F1F7B7CFF894FFCFD8
:00000001FF
