:100000000C942A000C9447000C9447000C94470071
:100010000C9447000C9447000C9447000C94470044
:100020000C9447000C9447000C9447000C94470034
:100030000C9447000C9447000C9447000C94470024
:100040000C9447000C9447000C9447000C94470014
:100050000C94470011241FBECFE5D4E0DEBFCDBF16
:1000600010E0A0E6B0E0EAEEF1E002C005900D92EB
:10007000A438B107D9F710E0A4E8B0E001C01D92A0
:10008000A438B107E1F70E94DC000C94F3000C9453
:10009000000080FF02C0DA9A01C0DA9881FF02C036
:1000A000DB9A01C0DB9882FF02C0DC9A01C0DC98B9
:1000B00083FF02C0DD9A0895DD9808951F93182FDD
:1000C000D99A82958F700E944900D998D99A812F28
:1000D0000E944900D99885E88A95F1F71F91089503
:1000E000D8980E945E000895D89A0E945E000895F4
:1000F000CF93DF93EC0103C021960E9474008881A6
:100100008823D1F7DF91CF9108956295660F660F2E
:10011000607C680F862F80680E947000089581E0DF
:100120000E94700080EA9FE00197F1F7089582E055
:100130000E94700080EA9FE00197F1F708951F93F5
:10014000CF93DF93D29AD39AD49AD59AD19AD09A50
:1001500080E395E70197F1F7D898D99810E0C0E1CE
:10016000D7E2D99A83E00E944900D998CE0101973D
:10017000F1F71F5F1330A9F7D99A82E00E94490076
:10018000D99880ED97E00197F1F788E20E9470001E
:1001900088E00E94700081E00E94700080EA9FE089
:1001A0000197F1F786E00E9470008CE00E947000D9
:1001B000DF91CF911F9108950E949F000E949700A8
:1001C0000E948F0060E080E00E94850080E690E061
:1001D0000E94780061E080E00E94850081E790E065
:0A01E0000E947800FFCFF894FFCFD3
:1001EA004142434445464748494A4B4C4D4E4F507D
:1001FA00005253545557595A303132333435363701
:04020A00383900007F
:00000001FF
