:100000000C942A000C9447000C9447000C94470071
:100010000C9447000C9447000C9447000C94470044
:100020000C9447000C9447000C9447000C94470034
:100030000C9447000C9447000C9447000C94470024
:100040000C9447000C9447000C9447000C94470014
:100050000C94470011241FBECFE5D4E0DEBFCDBF16
:1000600010E0A0E6B0E0EAE0F9E002C005900D92F1
:10007000AC37B107D9F710E0ACE7B0E001C01D9292
:10008000A238B107E1F70E942E010C9483040C946E
:10009000000080FF02C0C29A01C0C29881FF02C066
:1000A000C39A01C0C39882FF02C0C49A01C0C49819
:1000B00083FF02C0C59A0895C59808951F93182F0D
:1000C000C19A82958F700E944900C198C19A812F70
:1000D0000E944900C19880E18A95F1F71F91089527
:1000E000C0980E945E000895C09A0E945E00089524
:1000F000CF93DF93EC0103C021960E9474008881A6
:100100008823D1F7DF91CF9108956295660F660F2E
:10011000607C680F862F80680E947000089581E0DF
:100120000E94700084EF91E00197F1F7089582E05A
:100130000E94700084EF91E00197F1F708951F93FA
:10014000CF93DF93BA9ABB9ABC9ABD9AB99AB89AE0
:1001500086EA9EE00197F1F7C098C19810E0C2EEE0
:10016000D4E0C19A83E00E944900C198CE01019772
:10017000F1F71F5F1330A9F7C19A82E00E9449008E
:10018000C1988AEF90E00197F1F788E20E94700031
:1001900088E00E94700081E00E94700084EF91E08E
:1001A0000197F1F786E00E9470008CE00E947000D9
:1001B000DF91CF911F910895D09AD198D898D9986E
:1001C000089580E090E0A0E0B0E008C08E33910593
:1001D000A105B10561F10196A11DB11DC999F6CF27
:1001E00008C08E339105A105B10509F10196A11D45
:1001F000B11DC99BF6CF80E090E0A0E0B0E003C065
:100200000196A11DB11DC999FBCF9C01AD0163E011
:10021000220F331F441F551F6A95D1F7281B390B36
:100220004A0B5B0B2C593F4F4F4F5F4F04C020E0F0
:1002300030E040E050E0B901CA010895DF93CF9368
:1002400000D0CDB7DEB789831A82CE0101960E9415
:1002500078000F900F90CF91DF9108959F92AF9209
:10026000BF92CF92DF92EF92FF920F931F93DF9393
:10027000CF93CDB7DEB72E970FB6F894DEBF0FBE83
:10028000CDBFFE0131968EE0DF011D928A95E9F720
:1002900082E08C838EE191E09A878987F0937F00DA
:1002A000E0937E00D09AD198D898D9981BBA0E9432
:1002B0009F000E94970080E690E00E947800F3E0A3
:1002C0009F2EE0E7AE2EE0E0BE2E79E1C72ED12CC6
:1002D000D89A892D8A95F1F7D8980E94E1007B0180
:1002E0008C010E948F000E949700C801B7012AE389
:1002F00030E040E050E00E942A045F934F933F9328
:100300002F93BF92AF920E94960188EB9BE02DB78E
:100310003EB72A5F3F4F0FB6F8943EBF0FBE2DBFCA
:10032000F6013197F1F70197D9F7D2CFA0E0B0E00D
:10033000ECE9F1E00C945C04FE0135966191719159
:10034000AF0180917E0090917F000E94AB012096CA
:10035000E2E00C947804ABE0B0E0E1EBF1E00C9467
:100360004C043C012B015A01FC0117821682838147
:1003700081FD03C06FEF7FEFC8C19AE0892E1E0197
:100380000894211C311CF3012381F20123FD859186
:1003900023FF81912F01882309F4B4C1853239F4F8
:1003A00023FD859123FF81912F01853229F4B3012B
:1003B00090E00E94A003E7CF982FDD24CC2499245D
:1003C000FFE1FD15D0F09B3269F09C3228F49032A9
:1003D00059F0933291F40EC09D3249F0903369F494
:1003E00041E024C052E0D52A84E0D82A28C098E011
:1003F000D92A25C0E0E1DE2A22C0D7FC29C0892FF6
:1004000080538A3070F4D6FE05C0989C902C11243D
:10041000980E15C0C89CC02C1124C80EF0E2DF2A2B
:100420000EC09E3229F4D6FC6DC140E4D42A07C028
:100430009C3619F450E8D52A02C0983649F4F201E6
:1004400023FD959123FF91912F01992309F0B8CFB6
:10045000892F8554833018F08052833038F444E07B
:1004600050E0A40EB51E5FE359830FC0933631F000
:10047000933779F0933509F056C020C0F50180819B
:10048000898342E050E0A40EB51E710101E010E046
:1004900012C0F501E080F180D6FC03C06FEF7FEF62
:1004A00002C0692D70E042E050E0A40EB51EC70105
:1004B0000E9495038C015FE7D52214C0F501E0800E
:1004C000F180D6FC03C06FEF7FEF02C0692D70E0B2
:1004D00042E050E0A40EB51EC7010E948A038C01C1
:1004E00050E8D52AD3FE07C01AC0B30180E290E0DD
:1004F0000E94A003CA948C2D90E008171907A8F356
:100500000EC0F701D7FC8591D7FE81917F01B30121
:1005100090E00E94A003C110CA9401501040011540
:10052000110579F7ECC0943611F0993671F5D7FEC4
:1005300008C0F501E080F1800281138144E050E0C1
:100540000AC0F501808191817C010027F7FC0095AC
:10055000102F42E050E0A40EB51E5FE6D52217FF33
:100560000AC010950095F094E094E11CF11C011D67
:10057000111D80E8D82A2AE030E0A101C801B701A6
:100580000E94CC03F82EF21840C0953729F41D2D97
:100590001F7E2AE030E01DC01D2D197F9F3661F0BF
:1005A000903720F4983509F0ADC00FC0903739F07E
:1005B000983709F0A7C004C028E030E00AC01061F5
:1005C00014FD146020E130E004C014FD166020E149
:1005D00032E017FF08C0F50160817181828193814B
:1005E00044E050E008C0F50180819181BC0180E0C9
:1005F00090E042E050E0A40EB51EA1010E94CC03A1
:10060000F82EF2188FE7D82ED122D6FE0BC05EEF5F
:10061000D522F91438F4D4FE07C0D2FC05C08FEE01
:10062000D82202C01F2D01C0192DD4FE0DC0FE011D
:10063000EF0DF11D8081803319F499EED92208C0A5
:100640001F5FD2FE05C003C08D2D867809F01F5FA5
:100650000D2DD3FC14C0D0FE0FC01C1510F09F2C24
:100660000BC09F2C9C0C911A1C2D06C0B30180E27C
:1006700090E00E94A0031F5F1C15C0F304C01C156E
:1006800010F4C11A01C0CC2404FF10C0B30180E3F0
:1006900090E00E94A00302FF1EC001FD03C088E796
:1006A00090E002C088E590E0B3010CC0802F86780E
:1006B00091F001FF02C08BE201C080E2D7FC8DE225
:1006C000B30190E00E94A00306C0B30180E390E074
:1006D0000E94A0039A94F914C0F3FA94F101EF0D6B
:1006E000F11DB301808190E00E94A003FF20A9F7D3
:1006F00006C0B30180E290E00E94A003CA94CC201F
:10070000C1F741CEF30166817781CB012B96E2E1FF
:100710000C946804FC010590615070400110D8F7FA
:10072000809590958E0F9F1F0895FC016150704039
:1007300001900110D8F7809590958E0F9F1F089516
:100740000F931F93CF93DF938C01EB018B8181FF7C
:100750001BC082FF0DC02E813F818C819D81281797
:10076000390764F4E881F9810193F983E88306C0CD
:10077000E885F985802F0995892B31F48E819F8139
:1007800001969F838E8302C00FEF1FEFC801DF9198
:10079000CF911F910F910895FA01AA27283051F1A6
:1007A000203181F1E8946F936E7F6E5F7F4F8F4FA2
:1007B0009F4FAF4FB1E03ED0B4E03CD0670F781F01
:1007C000891F9A1FA11D680F791F8A1F911DA11DE6
:1007D0006A0F711D811D911DA11D20D009F468941F
:1007E0003F912AE0269F11243019305D3193DEF6C7
:1007F000CF010895462F4770405D4193B3E00FD07D
:10080000C9F7F6CF462F4F70405D4A3318F0495D67
:1008100031FD4052419302D0A9F7EACFB4E0A6954A
:100820009795879577956795BA95C9F7009761056C
:10083000710508959B01AC010A2E069457954795C2
:1008400037952795BA95C9F7620F731F841F951FB7
:10085000A01D0895A1E21A2EAA1BBB1BFD010DC00D
:10086000AA1FBB1FEE1FFF1FA217B307E407F50760
:1008700020F0A21BB30BE40BF50B661F771F881F3C
:10088000991F1A9469F760957095809590959B01D2
:10089000AC01BD01CF0108952F923F924F925F921C
:1008A0006F927F928F929F92AF92BF92CF92DF9280
:1008B000EF92FF920F931F93CF93DF93CDB7DEB7E5
:1008C000CA1BDB0B0FB6F894DEBF0FBECDBF099479
:1008D0002A88398848885F846E847D848C849B84D0
:1008E000AA84B984C884DF80EE80FD800C811B81DE
:1008F000AA81B981CE0FD11D0FB6F894DEBF0FBE0D
:0A090000CDBFED010895F894FFCF7C
:10090A004A65626163206369617061747963680032
:0C091A004C69637A62613A202569000094
:00000001FF
