:100000000C942A000C9447000C9447000C94470071
:100010000C9447000C9447000C9447000C94470044
:100020000C9447000C9447000C9447000C94470034
:100030000C9447000C9447000C9447000C94470024
:100040000C9447000C9447000C9447000C94470014
:100050000C94470011241FBECFE5D4E0DEBFCDBF16
:1000600010E0A0E6B0E0E2E1F1E002C005900D9200
:10007000A036B107D9F710E0A0E6B0E001C01D92AC
:10008000A536B107E1F70E9449000C9487000C9453
:1000900000008FEF87BB18BA82E08CBF83B78860FF
:1000A00083BF83B7826083BF89B7826089BF85B70A
:1000B0008C6085BF8BB780688BBF939A8B98D69ADC
:1000C000DE98789421E033E049E150E0DE98822F19
:1000D0008A95F1F7DE9A832F8A95F1F720936000D5
:1000E000DE98809160008823E1F710926100109201
:1000F0006200109263001092640088EB9BE0FA01AA
:100100003197F1F70197D9F720936000DFCFF8948A
:02011000FFCF1F
:00000001FF
