:100000000C942A000C9447000C9447000C94470071
:100010000C9447000C9447000C9447000C94470044
:100020000C9447000C9447000C9447000C94470034
:100030000C9447000C9447000C9447000C94470024
:100040000C9447000C9447000C9447000C94470014
:100050000C94470011241FBECFE5D4E0DEBFCDBF16
:1000600010E0A0E6B0E0ECEDF0E002C005900D92EB
:10007000A036B107D9F710E0A0E6B0E001C01D92AC
:10008000A036B107E1F70E9449000C946C000C9473
:10009000000087E886B985EC87B987B3836087BBA2
:1000A0008FEF84BBA098A598A89A9899FECF369A0E
:1000B0003699FECF84B195B18436910510F4C0987D
:1000C00006C084B195B18E55914018F4C09AC1987C
:0C00D000ECCFC09AC19AE9CFF894FFCFA2
:00000001FF
