:100000000C942A000C9447000C9447000C94470071
:100010000C9447000C9447000C9447000C94470044
:100020000C9447000C9447000C9447000C94470034
:100030000C9447000C9447000C9447000C94470024
:100040000C9447000C9447000C9447000C94470014
:100050000C94470011241FBECFE5D4E0DEBFCDBF16
:1000600010E0A0E6B0E0ECE2F9E002C005900D92ED
:10007000AC37B107D9F710E0ACE7B0E001C01D9292
:10008000A238B107E1F70E943B010C9494040C9450
:10009000000080FF02C0C29A01C0C29881FF02C066
:1000A000C39A01C0C39882FF02C0C49A01C0C49819
:1000B00083FF02C0C59A0895C59808951F93182F0D
:1000C000C19A82958F700E944900C198C19A812F70
:1000D0000E944900C19885E88A95F1F71F9108951B
:1000E000C0980E945E000895C09A0E945E00089524
:1000F000CF93DF93EC0103C021960E9474008881A6
:100100008823D1F7DF91CF9108956295660F660F2E
:10011000607C680F862F80680E947000089581E0DF
:100120000E94700080EA9FE00197F1F7089582E055
:100130000E94700080EA9FE00197F1F708951F93F5
:10014000CF93DF93BA9ABB9ABC9ABD9AB99AB89AE0
:1001500080E395E70197F1F7C098C19810E0C0E1FE
:10016000D7E2C19A83E00E944900C198CE0101976D
:10017000F1F71F5F1330A9F7C19A82E00E9449008E
:10018000C19880ED97E00197F1F788E20E94700036
:1001900088E00E94700081E00E94700080EA9FE089
:1001A0000197F1F786E00E9470008CE00E947000D9
:1001B000DF91CF911F910895D09AD198D898D9986E
:1001C000089580E090E0A0E0B0E00BC0843F21E023
:1001D000920720E0A20720E0B207B1F10196A11D2D
:1001E000B11DC999F3CF0BC0843F21E0920720E0F5
:1001F000A20720E0B20741F10196A11DB11DC99BE4
:10020000F3CF80E090E0A0E0B0E003C00196A11D34
:10021000B11DC999FBCF9C01AD0163E0220F331FD3
:10022000441F551F6A95D1F7281B390B4A0B5B0BEE
:100230002C593F4F4F4F5F4F83E056954795379569
:1002400027958A95D1F704C020E030E040E050E0E7
:10025000B901CA010895DF93CF9300D0CDB7DEB7BF
:1002600089831A82CE0101960E9478000F900F9028
:10027000CF91DF9108959F92AF92BF92CF92DF927C
:10028000EF92FF920F931F93DF93CF93CDB7DEB71B
:100290002E970FB6F894DEBF0FBECDBFFE0131968C
:1002A0008EE0DF011D928A95E9F782E08C838BE274
:1002B00091E09A878987F0937F00E0937E000E9407
:1002C000DC001BBA0E949F000E94970080E690E02D
:1002D0000E947800FAE19F2EE0E7AE2EE0E0BE2E0D
:1002E00078ECC72ED12CD89A892D8A95F1F7D89819
:1002F0000E94E1007B018C010E948F000E94970008
:1003000000D000D000D0EDB7FEB7B282A182C80104
:10031000B7012AE330E040E050E00E94A901ADB708
:10032000BEB713962D933D934D935C9316970E9401
:10033000CB0188EB9BE0EDB7FEB736960FB6F8948D
:10034000FEBF0FBEEDBFF6013197F1F70197D9F768
:10035000CACFA1E21A2EAA1BBB1BFD010DC0AA1F0A
:10036000BB1FEE1FFF1FA217B307E407F50720F01E
:10037000A21BB30BE40BF50B661F771F881F991F99
:100380001A9469F760957095809590959B01AC01E2
:10039000BD01CF010895A0E0B0E0E1EDF1E00C94E3
:1003A0006D04FE0135966191719180917E0090916E
:1003B0007F00AF010E94E0012096E2E00C948904E6
:1003C000ABE0B0E0E6EEF1E00C945D043C012B0103
:1003D0005A01FC0117821682838181FD03C06FEFF1
:1003E0007FEFC6C19AE0892E1E010894211C311CA2
:1003F000F3012381F20123FD859123FF81912F01D8
:10040000882309F4B2C1853239F423FD859123FF95
:1004100081912F01853229F490E0B3010E94D3032A
:10042000E7CF982FFF24EE249924FFE1FF15D0F0A9
:100430009B3269F09C3228F4903259F0933291F457
:100440000EC09D3249F0903369F441E024C052E07F
:10045000F52A84E0F82A28C098E0F92A25C0E0E1CE
:10046000FE2A22C0F7FC29C0892F80538A3070F4FD
:10047000F6FE05C0989C902C1124980E15C0E89C9F
:10048000E02C1124E80EF0E2FF2A0EC09E3229F47F
:10049000F6FC6BC140E4F42A07C09C3619F450E81E
:1004A000F52A02C0983649F4F20123FD959123FF05
:1004B00091912F01992309F0B8CF892F855483306A
:1004C00018F08052833038F444E050E0A40EB51E9A
:1004D0005FE359830FC0933631F0933779F093354A
:1004E00009F056C020C0F5018081898342E050E0C8
:1004F000A40EB51E610101E010E012C0F501C0803C
:10050000D180F6FC03C06FEF7FEF02C0692D70E071
:1005100042E050E0A40EB51EC6010E94C8038C0143
:100520005FE7F52214C0F501C080D180F6FC03C05E
:100530006FEF7FEF02C0692D70E042E050E0A40E43
:10054000B51EC6010E94BD038C0150E8F52AF3FEDA
:1005500007C01AC080E290E0B3010E94D303EA947E
:100560008E2D90E008171907A8F30EC0F601F7FCCE
:100570008591F7FE81916F0190E0B3010E94D30352
:10058000E110EA94015010400115110579F7EAC015
:10059000943611F0993669F5F7FE08C0F50120810F
:1005A00031814281538184E090E00AC0F50180816D
:1005B00091819C01442737FD4095542F82E090E0C3
:1005C000A80EB91E9FE6F92257FF09C05095409525
:1005D000309521953F4F4F4F5F4FE0E8FE2ACA010B
:1005E000B901A1012AE030E00E94FF03D82ED21801
:1005F00040C0953729F41F2D1F7E2AE030E01DC032
:100600001F2D197F9F3661F0903720F4983509F03F
:10061000ACC00FC0903739F0983709F0A6C004C0BD
:1006200028E030E00AC0106114FD146020E130E0E1
:1006300004C014FD166020E132E017FF08C0F50188
:10064000608171818281938144E050E008C0F501AE
:1006500080819181BC0180E090E042E050E0A40EF6
:10066000B51EA1010E94FF03D82ED2188FE7F82EE5
:10067000F122F6FE0BC05EEFF522D91438F4F4FE39
:1006800007C0F2FC05C08FEEF82202C01D2D01C08C
:10069000192DF4FE0DC0FE01ED0DF11D808180339A
:1006A00019F499EEF92208C01F5FF2FE05C003C0DD
:1006B0008F2D867809F01F5F0F2DF3FC14C0F0FE1C
:1006C0000FC01E1510F09D2C0BC09D2C9E0C911A76
:1006D0001E2D06C080E290E0B3010E94D3031F5F8D
:1006E0001E15C0F304C01E1510F4E11A01C0EE245B
:1006F00004FF0FC080E390E0B3010E94D30302FF28
:100700001DC001FD03C088E790E00EC088E590E0C1
:100710000BC0802F867891F001FF02C08BE201C0F0
:1007200080E2F7FC8DE290E0B3010E94D30306C0A3
:1007300080E390E0B3010E94D3039A94D914C0F3EC
:10074000DA94F101ED0DF11D808190E0B3010E947A
:10075000D303DD20A9F706C080E290E0B3010E9438
:10076000D303EA94EE20C1F743CEF301668177818B
:10077000CB012B96E2E10C947904FC0105906150C9
:1007800070400110D8F7809590958E0F9F1F0895A7
:10079000FC016150704001900110D8F78095909550
:1007A0008E0F9F1F08950F931F93CF93DF938C019C
:1007B000EB018B8181FF1BC082FF0DC02E813F8129
:1007C0008C819D812817390764F4E881F9810193B0
:1007D000F983E88306C0E885F985802F0995892B80
:1007E00031F48E819F8101969F838E8302C00FEF2B
:1007F0001FEFC801DF91CF911F910F910895FA016A
:10080000AA27283051F1203181F1E8946F936E7F4F
:100810006E5F7F4F8F4F9F4FAF4FB1E03ED0B4E040
:100820003CD0670F781F891F9A1FA11D680F791F81
:100830008A1F911DA11D6A0F711D811D911DA11D92
:1008400020D009F468943F912AE0269F11243019A2
:10085000305D3193DEF6CF010895462F4770405D3D
:100860004193B3E00FD0C9F7F6CF462F4F70405DEC
:100870004A3318F0495D31FD4052419302D0A9F747
:10088000EACFB4E0A6959795879577956795BA9541
:10089000C9F700976105710508959B01AC010A2E07
:1008A00006945795479537952795BA95C9F7620FDE
:1008B000731F841F951FA01D08952F923F924F9282
:1008C0005F926F927F928F929F92AF92BF92CF92E0
:1008D000DF92EF92FF920F931F93CF93DF93CDB7E9
:1008E000DEB7CA1BDB0B0FB6F894DEBF0FBECDBF61
:1008F00009942A88398848885F846E847D848C8432
:100900009B84AA84B984C884DF80EE80FD800C813A
:100910001B81AA81B981CE0FD11D0FB6F894DEBF1D
:0C0920000FBECDBFED010895F894FFCF8D
:10092C004A65626163206369617061747963680010
:0C093C004C69637A62613A202569000072
:00000001FF
