:100000000C94AB000C94C0000C94C0000C94C00085
:100010000C94C0000C94C0000C94C0000C94C00060
:100020000C94C0000C94C0000C94C0000C94C00050
:100030000C94C0000C94C0000C94C0000C94C00040
:100040000C94C0000C94C0000C94C0000C94C00030
:100050000C94C0006E616E00696E660000407A10FC
:10006000F35A00A0724E18090010A5D4E80000E869
:100070007648170000E40B54020000CA9A3B0000C7
:1000800000E1F505000080969800000040420F0056
:100090000000A08601000000102700000000E80317
:1000A000000000006400000000000A0000000000E2
:1000B0000100000000002C76D888DC674F0823DFA1
:1000C000C1DFAE59E1B1B796E5E3E453C63AE65174
:1000D000997696E8E6C28426EB898C9B62ED407C9B
:1000E0006FFCEFBC9C9F40F2BAA56FA5F490055A37
:1000F0002AF75C936B6CF9676DC11BFCE0E40D475C
:10010000FEF520E6B500D0ED902E0300943577057E
:100110000080841E080000204E0A000000C80C3336
:100120003333330F986E12831141EF8D2114893BC5
:10013000E65516CFFEE6DB18D1844B381BF77C1D45
:10014000901DA4BBE424203284725E228100C9F198
:1001500024ECA1E53D2711241FBECFE5D8E0DEBF8A
:10016000CDBF10E0A0E6B0E0E4E5F0E102C005900C
:100170000D92AA38B107D9F70E9463010C942808A0
:100180000C94000080FF02C0929A01C0929881FFF7
:1001900002C0939A01C0939882FF02C0949A01C052
:1001A000949883FF02C0959A0895959808951F9397
:1001B000182F919A82958F700E94C2009198919AFF
:1001C000812F0E94C200919880E18A95F1F700C0CA
:1001D0001F91089590980E94D7000895909A0E94C8
:1001E000D7000895EF92FF92CF93DF93E82EE701B7
:1001F0007E01F92EE70102C00E94EE00899188235A
:10020000D9F7DF91CF91FF90EF9008956295660F37
:10021000660F607C680F862F80680E94EA00089550
:1002200081E00E94EA0083EF91E00197F1F700C0BE
:100230000000089582E00E94EA0083EF91E00197B8
:10024000F1F700C0000008951F938A9A8B9A8C9A48
:100250008D9A899A889A85EA9EE00197F1F700C005
:1002600000009098919813E0919A83E00E94C20058
:10027000919881EE94E00197F1F700C000001150D1
:1002800099F7919A82E00E94C200919889EF90E0DC
:100290000197F1F700C0000088E20E94EA0088E0C0
:1002A0000E94EA0081E00E94EA0083EF91E001975A
:1002B000F1F700C0000086E00E94EA008CE00E9496
:1002C000EA001F910895CF92DF92EF92FF920F9371
:1002D0001F93DF93CF93CDB7DEB72C970FB6F8946B
:1002E000DEBF0FBECDBFDE011196EDE7F0E08CE082
:1002F00001900D928150E1F70E94240180E060E0BE
:100300000E94060180E690E00E94F20087E886B92C
:1003100085E487B9D0988E010F5F1F4F81E7C82E03
:1003200080E0D82E369A3699FECF64B175B18DB77C
:100330009EB708970FB6F8949EBF0FBE8DBFEDB65F
:10034000FEB60894E11CF11CADB7BEB712961C9323
:100350000E931197F701D382C28280E090E00E9451
:10036000650520E030E040EA50E40E94A20520E06C
:1003700030E040E85AE30E94A205D70114966D933D
:100380007D938D939C9317970E94A707EDB7FEB7B7
:1003900038960FB6F894FEBF0FBEEDBF83E061E064
:1003A0000E940601C8010E94F2008FE996E8A1E0D0
:1003B00081509040A040E1F700C00000B3CFA3E11E
:1003C000B0E0E5EEF1E00C9456066C017F876E8795
:1003D000FC0117821682838181FD04C06FC34C85A6
:1003E0005D8504C01E010894211C311CF601938117
:1003F000EE85FF8593FD859193FF8191FF87EE87C1
:10040000882309F457C3853241F493FD859193FF06
:100410008191FF87EE87853259F490E0B6014A8BCF
:100420005B8B0E947B074A895B895D874C87D7CFAE
:1004300010E0FF2400E00032B0F48B3269F08C321F
:1004400028F4803251F0833271F40BC08D3239F0D0
:10045000803349F401602CC00260046029C0086048
:1004600027C0006125C007FD2EC0282F20532A3049
:1004700098F406FF08C0812F880F182F110F110F55
:10048000180F120F15C08F2D880FF82EFF0CFF0CC0
:10049000F80EF20E00620CC08E3221F406FD0AC383
:1004A000006406C08C3611F4006802C0883659F426
:1004B000EE85FF8593FD859193FF8191FF87EE8700
:1004C000882309F0B8CF982F9554933018F4006121
:1004D000805E06C0982F9556933008F09BC10F7E22
:1004E00006FF16E06FE3E62EE022853619F4F0E40D
:1004F000EF2A07C0863619F420E8E22A02C011115B
:100500001150E7FE06C01C3340F4912E939427E06F
:100510000BC0183030F4212F06C027E03CE3932EA7
:1005200003C027E017E09924CA0104969D878C87B1
:10053000FA016081718182819381A101092D0E945C
:100540008D065C016980262D30E0398B288B60FE9A
:1005500003C0388933FF06C0E1FC06C0E2FE06C0D6
:1005600000E205C00DE203C00BE201C000E0888993
:1005700099898C7090700097C1F1002311F084E08C
:1005800001C083E08F1558F4F81AE3FC09C080E23B
:1005900090E0B6010E947B07FA94C9F701C0FF24DE
:1005A000002329F0802F90E0B6010E947B07888904
:1005B00083FD03C008E510E00EC004E510E00BC0A9
:1005C000A114B10409F0805290E0B6010E947B07AB
:1005D0000F5F1F4F05C0AE2CBB2490E1A922BB24A6
:1005E000F8018491882361F762C2E7FE0EC09A0C7D
:1005F000F889F4FF04C08A81813309F49A941914AC
:1006000054F5292D293050F52DC0E6FC2BC0812F43
:1006100090E08A159B054CF03CEFA3163FEFB30624
:1006200024F080E8E82A01C01150112349F0E2E0EB
:10063000F0E0EC0FFD1FE10FF11D80818033A1F38D
:10064000E7FE10C0912E9394812F90E0A816B90672
:1006500044F41A1907C09924939404C098E0992E81
:1006600001C010E0E7FE07C01A141B043CF495011A
:100670002F5F3F4F05C025E030E002C021E030E0B1
:10068000002311F02F5F3F4F112329F0812F90E0BD
:100690000196280F391F8F2D90E02817390714F481
:1006A000F21A01C0FF244E2C5524C20189709070AB
:1006B000009749F406C080E290E0B6010E947B07F3
:1006C000FA94FF20C1F7002329F0802F90E0B601B3
:1006D0000E947B0743FC09C006C080E390E0B6019E
:1006E0000E947B07FA94FF20C1F7E7FE46C0350160
:1006F000B7FE02C06624772425010894411C511CD2
:1007000046185708420C531CF501E919F1094F012D
:10071000812F90E000271127081B190BFFEF6F16A0
:10072000FFEF7F0629F48EE290E0B6010E947B077E
:10073000A614B70434F0861497041CF4F2018081E7
:1007400001C080E30894610871080894411C511CA1
:10075000601671062CF090E0B6010E947B07DECF98
:100760006A147B0441F49A81963320F4953319F48A
:10077000F889F4FF81E390E049C08A81813311F068
:100780002FEE622290E0B6010E947B07112389F0D0
:100790008EE290E0B6010E947B0702E0F101E00FDB
:1007A000F11D0F5F808190E0B6010E947B07115020
:1007B000A9F744FE03C085E490E002C085E690E01E
:1007C000B6010E947B07B7FC05C0A114B10441F437
:1007D00064FE06C0B094A194B108B3948DE201C048
:1007E0008BE290E0B6010E947B0780E305C08F5F3B
:1007F000E6EFFFEFAE0EBF1EFAE0AF16B104BCF796
:1008000090E0B6010E947B07C501C096B6010E9428
:100810007B074DC1833631F0833789F0833509F08A
:1008200059C022C09A012E5F3F4F3D872C87FA01A5
:1008300080818983310181E0A82EB12C13C09A01F7
:100840002E5F3F4F3D872C87FA016080718006FF45
:1008500003C0612F70E002C06FEF7FEFC3010E9401
:1008600070075C010F7714C09A012E5F3F4F3D87E0
:100870002C87FA016080718006FF03C0612F70E051
:1008800002C06FEF7FEFC3010E9465075C01006843
:1008900003FD1CC006C080E290E0B6010E947B0709
:1008A000FA948F2D90E0A816B906A8F30FC0F301B3
:1008B00007FD859107FF81913F0190E0B6010E94FD
:1008C0007B07F110FA940894A108B108A114B104AF
:1008D00071F7EDC0843611F0893661F507FF0BC062
:1008E0009A012C5F3F4F3D872C87FA01608171810F
:1008F000828193810CC09A012E5F3F4F3D872C87E8
:10090000FA0160817181882777FD8095982F0F7695
:1009100097FF08C090958095709561957F4F8F4F98
:100920009F4F0068A1012AE030E00E94CA07982E7C
:10093000921841C0853721F40F7E2AE030E020C0B4
:10094000097F8F36A9F0803720F4883509F0B2C0CE
:100950000BC0803721F0883709F0ACC001C00061BE
:1009600004FF09C0046007C004FF08C0066006C099
:1009700028E030E005C020E130E002C020E132E0B4
:1009800007FF0AC0CA0104969D878C87FA0160811F
:1009900071818281938109C0CA0102969D878C87EB
:1009A000FA016081718180E090E0A1010E94CA0794
:1009B000982E92180F7706FF09C00E7F911630F41B
:1009C00004FF06C002FD04C00F7E02C0E92C01C076
:1009D000E12E802F90E004FF0CC0FE01E90DF11D17
:1009E0002081203311F4097E09C0E39402FF06C080
:1009F00004C086789070009709F0E394A02EBB2481
:100A000003FD14C000FF0FC0EF1428F4192D1F0DB3
:100A10001E19EF2C08C0192D06C080E290E0B60127
:100A20000E947B07E394EF14C0F304C0EF1410F4AA
:100A3000FE1801C0FF24A4FE0FC080E390E0B601C1
:100A40000E947B07A2FE1FC0A1FE03C088E590E0C4
:100A500010C088E790E00DC0C501867890700097BF
:100A600091F0A1FC02C080E201C08BE207FD8DE2A3
:100A700090E0B6010E947B0706C080E390E0B601DB
:100A80000E947B0711509116C0F39A94F101E90D71
:100A9000F11D808190E0B6010E947B079920A9F7A3
:100AA00006C080E290E0B6010E947B07FA94FF2026
:100AB000C1F795CCF6012681378102C02FEF3FEFB9
:100AC000C9016396E2E10C947206E89409C097FBB1
:100AD0003EF490958095709561957F4F8F4F9F4F15
:100AE0009923A9F0F92F96E9BB279395F695879559
:100AF00077956795B795F111F8CFFAF4BB0F11F41C
:100B000060FF1BC06F5F7F4F8F4F9F4F16C08823C2
:100B100011F096E911C0772321F09EE8872F762FF8
:100B200005C0662371F096E8862F70E060E02AF039
:100B30009A95660F771F881FDAF7880F9695879525
:100B400097F908950BD078C069D028F06ED018F0CE
:100B5000952309F05AC05FC01124A2C07ED0A0F333
:100B6000959FD1F3950F50E0551F629FF001729F42
:100B7000BB27F00DB11D639FAA27F00DB11DAA1F61
:100B8000649F6627B00DA11D661F829F2227B00DAE
:100B9000A11D621F739FB00DA11D621F839FA00D39
:100BA000611D221F749F3327A00D611D231F849F89
:100BB000600D211D822F762F6A2F11249F575040E0
:100BC0008AF0E1F088234AF0EE0FFF1FBB1F661F7B
:100BD000771F881F91505040A9F79E3F510570F034
:100BE00014C05EC05F3FECF3983EDCF386957795CA
:100BF0006795B795F795E7959F5FC1F7FE2B880F2F
:100C0000911D9695879597F9089597F99F6780E8C4
:100C100070E060E008959FEF80EC089500240A944E
:100C20001616170618060906089500240A941216C7
:100C30001306140605060895092E0394000C11F4FA
:100C4000882352F0BB0F40F4BF2B11F460FF04C0A7
:100C50006F5F7F4F8F4F9F4F089557FD9058440F00
:100C6000551F59F05F3F71F04795880F97FB991F0B
:100C700061F09F3F79F087950895121613061406C8
:100C8000551FF2CF4695F1DF08C016161706180655
:100C9000991FF1CF86957105610508940895E89430
:100CA000BB2766277727CB0197F908952F923F92AC
:100CB0004F925F926F927F928F929F92AF92BF926C
:100CC000CF92DF92EF92FF920F931F93CF93DF9318
:100CD000CDB7DEB7CA1BDB0B0FB6F894DEBF0FBE75
:100CE000CDBF09942A88398848885F846E847D84C2
:100CF0008C849B84AA84B984C884DF80EE80FD80C4
:100D00000C811B81AA81B981CE0FD11D0FB6F89439
:100D1000DEBF0FBECDBFED010895283008F027E0FB
:100D20003327DA01990F311D87FD91600096610527
:100D3000710539F432602E5F3D9330E32A95E1F777
:100D400008959F3F30F080387105610509F03C5FE0
:100D50003C5F3D93913008F08068911DDF93CF9305
:100D60001F930F93FF92EF92192F987F9695E92F7B
:100D700096959695E90FFF27EA54FF4F9927332759
:100D8000EE24FF24A701E70105900894079428F4B6
:100D9000360FE71EF81E491F511D660F771F881F6B
:100DA000991F0694A1F70590079428F4E70EF81E02
:100DB000491F561FC11D770F881F991F661F069474
:100DC000A1F70590079428F4F80E491F561FC71F76
:100DD000D11D880F991F661F771F0694A1F70590F4
:100DE000079420F4490F561FC71FD81F990F661F7D
:100DF000771F881F0694A9F784911095177041F00A
:100E0000D695C79557954795F794E7941A95C1F7E6
:100E1000ECE5F0E068941590159135916591959108
:100E200005907FE27395E118F10A430B560BC90B4D
:100E3000D009C0F7E10CF11E431F561FC91FD01D7A
:100E40007EF4703311F48A95E6CFE894015030F0C7
:100E5000080F0AF40027021708F4202F2395022F09
:100E60007A3328F079E37D932A95E9F710C07D93D2
:100E70002A9589F60694979567953795179517944F
:100E8000E118F10A430B560BC90BD00998F02395D2
:100E90007E9173957A3308F070E37C932013B8F752
:100EA0007E9170617D9330F0839571E37D9370E363
:100EB0002A95E1F71124EF90FF900F911F91CF91A8
:100EC000DF91992787FD90950895FC010590615069
:100ED00070400110D8F7809590958E0F9F1F089550
:100EE000FC016150704001900110D8F780959095F9
:100EF0008E0F9F1F08950F931F93CF93DF938C0145
:100F0000EB018B8181FF1BC082FF0DC02E813F81D1
:100F10008C819D812817390764F4E881F981019358
:100F2000F983E88306C0E885F985802F0995009745
:100F300031F48E819F8101969F838E8302C00FEFD3
:100F40001FEFC801DF91CF911F910F910895AEE07F
:100F5000B0E0EDEAF7E00C9464060D891E8986E0A6
:100F60008C831A8309838FEF9FE79E838D839E0175
:100F7000275E3F4FCE0101966F89788DA9010E94AF
:100F8000DF01EF81F885E00FF11F10822E96E4E07B
:100F90000C948006FA01AA27283051F1203181F102
:100FA000E8946F936E7F6E5F7F4F8F4F9F4FAF4F71
:100FB000B1E03ED0B4E03CD0670F781F891F9A1F84
:100FC000A11D680F791F8A1F911DA11D6A0F711D38
:100FD000811D911DA11D20D009F468943F912AE044
:100FE000269F11243019305D3193DEF6CF0108952C
:100FF000462F4770405D4193B3E00FD0C9F7F6CF5D
:10100000462F4F70405D4A3318F0495D31FD405224
:10101000419302D0A9F7EACFB4E0A69597958795BA
:1010200077956795BA95C9F7009761057105089599
:101030009B01AC010A2E0694579547953795279545
:10104000BA95C9F7620F731F841F951FA01D0895DD
:04105000F894FFCF42
:1010540041444320746573743A20313020626974CA
:1010640000553D25312E3366205B565D002020203F
:0A1074002020202020202020000072
:00000001FF
