:100000000C942A000C9447000C9444010C94470073
:100010000C9447000C9447000C9447000C94470044
:100020000C9447000C9447000C9447000C94470034
:100030000C9447000C9447000C9447000C94470024
:100040000C9447000C9447000C9447000C941B013F
:100050000C94470011241FBECFE5D4E0DEBFCDBF16
:1000600010E0A0E6B0E0E4EAF2E002C005900D92F4
:10007000A036B107D9F710E0A0E6B0E001C01D92AC
:10008000A536B107E1F70E94DC000C9450010C94F6
:10009000000080FF02C0929A01C0929881FF02C0C6
:1000A000939A01C0939882FF02C0949A01C09498D9
:1000B00083FF02C0959A0895959808951F93182F6D
:1000C000919A82958F700E9449009198919A812F00
:1000D0000E944900919880E18A95F1F71F91089557
:1000E00090980E945E000895909A0E945E00089584
:1000F000CF93DF93EC0103C021960E9474008881A6
:100100008823D1F7DF91CF9108956295660F660F2E
:10011000607C680F862F80680E947000089581E0DF
:100120000E94700084EF91E00197F1F7089582E05A
:100130000E94700084EF91E00197F1F708951F93FA
:10014000CF93DF938A9A8B9A8C9A8D9A899A889A00
:1001500086EA9EE00197F1F79098919810E0C2EE40
:10016000D4E0919A83E00E9449009198CE010197D2
:10017000F1F71F5F1330A9F7919A82E00E944900BE
:1001800091988AEF90E00197F1F788E20E94700061
:1001900088E00E94700081E00E94700084EF91E08E
:1001A0000197F1F786E00E9470008CE00E947000D9
:1001B000DF91CF911F9108958FEF87BB88BB80E2BD
:1001C0009EE429E130E0F9013197F1F70197D9F781
:1001D00082E08CBF83B7886083BF83B7826083BFB0
:1001E00089B7826089BF85B78C6085BF8BB780680F
:1001F0008BBF939A8B98D69ADE98789421E033E05F
:1002000049E150E0DE98822F8A95F1F7DE9A832F3C
:100210008A95F1F720936000DE9880916000882332
:10022000E1F788EB9BE0FA013197F1F70197D9F7F5
:1002300020936000E7CF1F920F920FB60F92112408
:100240008F939F93AF93BF9380916000882399F021
:100250008091610090916200A0916300B091640070
:100260000196A11DB11D8093610090936200A0933F
:100270006300B0936400BF91AF919F918F910F90F5
:100280000FBE0F901F9018951F920F920FB60F92EE
:100290001124109260000F900FBE0F901F901895C0
:0402A000F894FFCF00
:00000001FF
